{
	"contracts/FallbackExample.sol": {
		"FallbackExample": {
			"abi": [
				{
					"stateMutability": "payable",
					"type": "fallback"
				},
				{
					"inputs": [],
					"name": "result",
					"outputs": [
						{
							"internalType": "uint256",
							"name": "",
							"type": "uint256"
						}
					],
					"stateMutability": "view",
					"type": "function"
				},
				{
					"stateMutability": "payable",
					"type": "receive"
				}
			],
			"devdoc": {
				"kind": "dev",
				"methods": {},
				"version": 1
			},
			"evm": {
				"assembly": "    /* \"contracts/FallbackExample.sol\":60:241  contract FallbackExample {... */\n  mstore(0x40, 0x80)\n  callvalue\n  dup1\n  iszero\n  tag_1\n  jumpi\n  0x00\n  dup1\n  revert\ntag_1:\n  pop\n  dataSize(sub_0)\n  dup1\n  dataOffset(sub_0)\n  0x00\n  codecopy\n  0x00\n  return\nstop\n\nsub_0: assembly {\n        /* \"contracts/FallbackExample.sol\":60:241  contract FallbackExample {... */\n      mstore(0x40, 0x80)\n      jumpi(tag_1, lt(calldatasize, 0x04))\n      shr(0xe0, calldataload(0x00))\n      dup1\n      0x65372147\n      eq\n      tag_3\n      jumpi\n      jump(tag_2)\n    tag_1:\n      jumpi(tag_2, calldatasize)\n        /* \"contracts/FallbackExample.sol\":164:165  1 */\n      0x01\n        /* \"contracts/FallbackExample.sol\":155:161  result */\n      0x00\n        /* \"contracts/FallbackExample.sol\":155:165  result = 1 */\n      dup2\n      swap1\n      sstore\n      pop\n        /* \"contracts/FallbackExample.sol\":60:241  contract FallbackExample {... */\n      stop\n    tag_2:\n        /* \"contracts/FallbackExample.sol\":231:232  2 */\n      0x02\n        /* \"contracts/FallbackExample.sol\":222:228  result */\n      0x00\n        /* \"contracts/FallbackExample.sol\":222:232  result = 2 */\n      dup2\n      swap1\n      sstore\n      pop\n        /* \"contracts/FallbackExample.sol\":60:241  contract FallbackExample {... */\n      stop\n        /* \"contracts/FallbackExample.sol\":91:112  uint256 public result */\n    tag_3:\n      callvalue\n      dup1\n      iszero\n      tag_8\n      jumpi\n      0x00\n      dup1\n      revert\n    tag_8:\n      pop\n      tag_9\n      tag_10\n      jump\t// in\n    tag_9:\n      mload(0x40)\n      tag_11\n      swap2\n      swap1\n      tag_12\n      jump\t// in\n    tag_11:\n      mload(0x40)\n      dup1\n      swap2\n      sub\n      swap1\n      return\n    tag_10:\n      sload(0x00)\n      dup2\n      jump\t// out\n        /* \"#utility.yul\":7:84   */\n    tag_13:\n        /* \"#utility.yul\":44:51   */\n      0x00\n        /* \"#utility.yul\":73:78   */\n      dup2\n        /* \"#utility.yul\":62:78   */\n      swap1\n      pop\n        /* \"#utility.yul\":7:84   */\n      swap2\n      swap1\n      pop\n      jump\t// out\n        /* \"#utility.yul\":90:208   */\n    tag_14:\n        /* \"#utility.yul\":177:201   */\n      tag_18\n        /* \"#utility.yul\":195:200   */\n      dup2\n        /* \"#utility.yul\":177:201   */\n      tag_13\n      jump\t// in\n    tag_18:\n        /* \"#utility.yul\":172:175   */\n      dup3\n        /* \"#utility.yul\":165:202   */\n      mstore\n        /* \"#utility.yul\":90:208   */\n      pop\n      pop\n      jump\t// out\n        /* \"#utility.yul\":214:436   */\n    tag_12:\n        /* \"#utility.yul\":307:311   */\n      0x00\n        /* \"#utility.yul\":345:347   */\n      0x20\n        /* \"#utility.yul\":334:343   */\n      dup3\n        /* \"#utility.yul\":330:348   */\n      add\n        /* \"#utility.yul\":322:348   */\n      swap1\n      pop\n        /* \"#utility.yul\":358:429   */\n      tag_20\n        /* \"#utility.yul\":426:427   */\n      0x00\n        /* \"#utility.yul\":415:424   */\n      dup4\n        /* \"#utility.yul\":411:428   */\n      add\n        /* \"#utility.yul\":402:408   */\n      dup5\n        /* \"#utility.yul\":358:429   */\n      tag_14\n      jump\t// in\n    tag_20:\n        /* \"#utility.yul\":214:436   */\n      swap3\n      swap2\n      pop\n      pop\n      jump\t// out\n\n    auxdata: 0xa2646970667358221220e600fbd5b689e32853cc85e4e0edcd8b87095970541a522458d575f20b07127264736f6c63430008080033\n}\n",
				"bytecode": {
					"linkReferences": {},
					"object": "608060405234801561001057600080fd5b5060c98061001f6000396000f3fe608060405260043610601f5760003560e01c80636537214714603757602d565b36602d576001600081905550005b6002600081905550005b348015604257600080fd5b506049605d565b60405160549190607a565b60405180910390f35b60005481565b6000819050919050565b6074816063565b82525050565b6000602082019050608d6000830184606d565b9291505056fea2646970667358221220e600fbd5b689e32853cc85e4e0edcd8b87095970541a522458d575f20b07127264736f6c63430008080033",
					"opcodes": "PUSH1 0x80 PUSH1 0x40 MSTORE CALLVALUE DUP1 ISZERO PUSH2 0x10 JUMPI PUSH1 0x0 DUP1 REVERT JUMPDEST POP PUSH1 0xC9 DUP1 PUSH2 0x1F PUSH1 0x0 CODECOPY PUSH1 0x0 RETURN INVALID PUSH1 0x80 PUSH1 0x40 MSTORE PUSH1 0x4 CALLDATASIZE LT PUSH1 0x1F JUMPI PUSH1 0x0 CALLDATALOAD PUSH1 0xE0 SHR DUP1 PUSH4 0x65372147 EQ PUSH1 0x37 JUMPI PUSH1 0x2D JUMP JUMPDEST CALLDATASIZE PUSH1 0x2D JUMPI PUSH1 0x1 PUSH1 0x0 DUP2 SWAP1 SSTORE POP STOP JUMPDEST PUSH1 0x2 PUSH1 0x0 DUP2 SWAP1 SSTORE POP STOP JUMPDEST CALLVALUE DUP1 ISZERO PUSH1 0x42 JUMPI PUSH1 0x0 DUP1 REVERT JUMPDEST POP PUSH1 0x49 PUSH1 0x5D JUMP JUMPDEST PUSH1 0x40 MLOAD PUSH1 0x54 SWAP2 SWAP1 PUSH1 0x7A JUMP JUMPDEST PUSH1 0x40 MLOAD DUP1 SWAP2 SUB SWAP1 RETURN JUMPDEST PUSH1 0x0 SLOAD DUP2 JUMP JUMPDEST PUSH1 0x0 DUP2 SWAP1 POP SWAP2 SWAP1 POP JUMP JUMPDEST PUSH1 0x74 DUP2 PUSH1 0x63 JUMP JUMPDEST DUP3 MSTORE POP POP JUMP JUMPDEST PUSH1 0x0 PUSH1 0x20 DUP3 ADD SWAP1 POP PUSH1 0x8D PUSH1 0x0 DUP4 ADD DUP5 PUSH1 0x6D JUMP JUMPDEST SWAP3 SWAP2 POP POP JUMP INVALID LOG2 PUSH5 0x6970667358 0x22 SLT KECCAK256 0xE6 STOP 0xFB 0xD5 0xB6 DUP10 0xE3 0x28 MSTORE8 0xCC DUP6 0xE4 0xE0 0xED 0xCD DUP12 DUP8 MULMOD MSIZE PUSH17 0x541A522458D575F20B07127264736F6C63 NUMBER STOP ADDMOD ADDMOD STOP CALLER "
				},
				"gasEstimates": {
					"creation": {
						"codeDepositCost": "40200",
						"executionCost": "93",
						"totalCost": "40293"
					},
					"external": {
						"": "22199",
						"result()": "2407"
					}
				},
				"methodIdentifiers": {
					"result()": "65372147"
				}
			},
			"storageLayout": {
				"storage": [
					{
						"astId": 3,
						"contract": "contracts/FallbackExample.sol:FallbackExample",
						"label": "result",
						"offset": 0,
						"slot": "0",
						"type": "t_uint256"
					}
				],
				"types": {
					"t_uint256": {
						"encoding": "inplace",
						"label": "uint256",
						"numberOfBytes": "32"
					}
				}
			},
			"userdoc": {
				"kind": "user",
				"methods": {},
				"version": 1
			}
		}
	}
}