{
	"contracts/FundMe.sol": {
		"FundMe": {
			"abi": [
				{
					"inputs": [],
					"name": "fund",
					"outputs": [],
					"stateMutability": "payable",
					"type": "function"
				},
				{
					"inputs": [
						{
							"internalType": "uint256",
							"name": "ethAmount",
							"type": "uint256"
						}
					],
					"name": "getConversionRate",
					"outputs": [
						{
							"internalType": "uint256",
							"name": "",
							"type": "uint256"
						}
					],
					"stateMutability": "view",
					"type": "function"
				},
				{
					"inputs": [],
					"name": "getPrice",
					"outputs": [
						{
							"internalType": "uint256",
							"name": "",
							"type": "uint256"
						}
					],
					"stateMutability": "view",
					"type": "function"
				},
				{
					"inputs": [],
					"name": "getVersion",
					"outputs": [
						{
							"internalType": "uint256",
							"name": "",
							"type": "uint256"
						}
					],
					"stateMutability": "view",
					"type": "function"
				},
				{
					"inputs": [],
					"name": "minimumUSD",
					"outputs": [
						{
							"internalType": "uint256",
							"name": "",
							"type": "uint256"
						}
					],
					"stateMutability": "view",
					"type": "function"
				}
			],
			"devdoc": {
				"kind": "dev",
				"methods": {},
				"version": 1
			},
			"evm": {
				"assembly": "    /* \"contracts/FundMe.sol\":248:1712  contract FundMe {... */\n  mstore(0x40, 0x80)\n    /* \"contracts/FundMe.sol\":322:331  50 * 1e18 */\n  0x02b5e3af16b1880000\n    /* \"contracts/FundMe.sol\":294:331  uint256 public minimumUSD = 50 * 1e18 */\n  0x00\n  sstore\n    /* \"contracts/FundMe.sol\":248:1712  contract FundMe {... */\n  callvalue\n  dup1\n  iszero\n  tag_1\n  jumpi\n  0x00\n  dup1\n  revert\ntag_1:\n  pop\n  dataSize(sub_0)\n  dup1\n  dataOffset(sub_0)\n  0x00\n  codecopy\n  0x00\n  return\nstop\n\nsub_0: assembly {\n        /* \"contracts/FundMe.sol\":248:1712  contract FundMe {... */\n      mstore(0x40, 0x80)\n      jumpi(tag_1, lt(calldatasize, 0x04))\n      shr(0xe0, calldataload(0x00))\n      dup1\n      0x0d8e6e2c\n      eq\n      tag_2\n      jumpi\n      dup1\n      0x3430a88c\n      eq\n      tag_3\n      jumpi\n      dup1\n      0x6e5b6b28\n      eq\n      tag_4\n      jumpi\n      dup1\n      0x98d5fdca\n      eq\n      tag_5\n      jumpi\n      dup1\n      0xb60d4288\n      eq\n      tag_6\n      jumpi\n    tag_1:\n      0x00\n      dup1\n      revert\n        /* \"contracts/FundMe.sol\":1153:1355  function getVersion() public view returns(uint256){... */\n    tag_2:\n      callvalue\n      dup1\n      iszero\n      tag_7\n      jumpi\n      0x00\n      dup1\n      revert\n    tag_7:\n      pop\n      tag_8\n      tag_9\n      jump\t// in\n    tag_8:\n      mload(0x40)\n      tag_10\n      swap2\n      swap1\n      tag_11\n      jump\t// in\n    tag_10:\n      mload(0x40)\n      dup1\n      swap2\n      sub\n      swap1\n      return\n        /* \"contracts/FundMe.sol\":294:331  uint256 public minimumUSD = 50 * 1e18 */\n    tag_3:\n      callvalue\n      dup1\n      iszero\n      tag_12\n      jumpi\n      0x00\n      dup1\n      revert\n    tag_12:\n      pop\n      tag_13\n      tag_14\n      jump\t// in\n    tag_13:\n      mload(0x40)\n      tag_15\n      swap2\n      swap1\n      tag_11\n      jump\t// in\n    tag_15:\n      mload(0x40)\n      dup1\n      swap2\n      sub\n      swap1\n      return\n        /* \"contracts/FundMe.sol\":1361:1677  function getConversionRate(uint256 ethAmount) public view returns(uint256) {... */\n    tag_4:\n      callvalue\n      dup1\n      iszero\n      tag_16\n      jumpi\n      0x00\n      dup1\n      revert\n    tag_16:\n      pop\n      tag_17\n      0x04\n      dup1\n      calldatasize\n      sub\n      dup2\n      add\n      swap1\n      tag_18\n      swap2\n      swap1\n      tag_19\n      jump\t// in\n    tag_18:\n      tag_20\n      jump\t// in\n    tag_17:\n      mload(0x40)\n      tag_21\n      swap2\n      swap1\n      tag_11\n      jump\t// in\n    tag_21:\n      mload(0x40)\n      dup1\n      swap2\n      sub\n      swap1\n      return\n        /* \"contracts/FundMe.sol\":741:1147  function getPrice() public view returns(uint256) {... */\n    tag_5:\n      callvalue\n      dup1\n      iszero\n      tag_22\n      jumpi\n      0x00\n      dup1\n      revert\n    tag_22:\n      pop\n      tag_23\n      tag_24\n      jump\t// in\n    tag_23:\n      mload(0x40)\n      tag_25\n      swap2\n      swap1\n      tag_11\n      jump\t// in\n    tag_25:\n      mload(0x40)\n      dup1\n      swap2\n      sub\n      swap1\n      return\n        /* \"contracts/FundMe.sol\":354:707  function fund() public payable {... */\n    tag_6:\n      tag_26\n      tag_27\n      jump\t// in\n    tag_26:\n      stop\n        /* \"contracts/FundMe.sol\":1153:1355  function getVersion() public view returns(uint256){... */\n    tag_9:\n        /* \"contracts/FundMe.sol\":1195:1202  uint256 */\n      0x00\n        /* \"contracts/FundMe.sol\":1213:1244  AggregatorV3Interface priceFeed */\n      dup1\n        /* \"contracts/FundMe.sol\":1269:1311  0x8A753747A1Fa494EC906cE90E9f37563A8AF630e */\n      0x8a753747a1fa494ec906ce90e9f37563a8af630e\n        /* \"contracts/FundMe.sol\":1213:1312  AggregatorV3Interface priceFeed = AggregatorV3Interface(0x8A753747A1Fa494EC906cE90E9f37563A8AF630e) */\n      swap1\n      pop\n        /* \"contracts/FundMe.sol\":1329:1338  priceFeed */\n      dup1\n        /* \"contracts/FundMe.sol\":1329:1346  priceFeed.version */\n      0xffffffffffffffffffffffffffffffffffffffff\n      and\n      0x54fd4d50\n        /* \"contracts/FundMe.sol\":1329:1348  priceFeed.version() */\n      mload(0x40)\n      dup2\n      0xffffffff\n      and\n      0xe0\n      shl\n      dup2\n      mstore\n      0x04\n      add\n      0x20\n      mload(0x40)\n      dup1\n      dup4\n      sub\n      dup2\n      dup7\n      dup1\n      extcodesize\n      iszero\n      dup1\n      iszero\n      tag_29\n      jumpi\n      0x00\n      dup1\n      revert\n    tag_29:\n      pop\n      gas\n      staticcall\n      iszero\n      dup1\n      iszero\n      tag_31\n      jumpi\n      returndatasize\n      0x00\n      dup1\n      returndatacopy\n      revert(0x00, returndatasize)\n    tag_31:\n      pop\n      pop\n      pop\n      pop\n      mload(0x40)\n      returndatasize\n      not(0x1f)\n      0x1f\n      dup3\n      add\n      and\n      dup3\n      add\n      dup1\n      0x40\n      mstore\n      pop\n      dup2\n      add\n      swap1\n      tag_32\n      swap2\n      swap1\n      tag_33\n      jump\t// in\n    tag_32:\n        /* \"contracts/FundMe.sol\":1322:1348  return priceFeed.version() */\n      swap2\n      pop\n      pop\n        /* \"contracts/FundMe.sol\":1153:1355  function getVersion() public view returns(uint256){... */\n      swap1\n      jump\t// out\n        /* \"contracts/FundMe.sol\":294:331  uint256 public minimumUSD = 50 * 1e18 */\n    tag_14:\n      sload(0x00)\n      dup2\n      jump\t// out\n        /* \"contracts/FundMe.sol\":1361:1677  function getConversionRate(uint256 ethAmount) public view returns(uint256) {... */\n    tag_20:\n        /* \"contracts/FundMe.sol\":1427:1434  uint256 */\n      0x00\n        /* \"contracts/FundMe.sol\":1446:1462  uint256 ethPrice */\n      dup1\n        /* \"contracts/FundMe.sol\":1465:1475  getPrice() */\n      tag_35\n        /* \"contracts/FundMe.sol\":1465:1473  getPrice */\n      tag_24\n        /* \"contracts/FundMe.sol\":1465:1475  getPrice() */\n      jump\t// in\n    tag_35:\n        /* \"contracts/FundMe.sol\":1446:1475  uint256 ethPrice = getPrice() */\n      swap1\n      pop\n        /* \"contracts/FundMe.sol\":1569:1591  uint256 ethAmountInUsd */\n      0x00\n        /* \"contracts/FundMe.sol\":1619:1623  1e18 */\n      0x0de0b6b3a7640000\n        /* \"contracts/FundMe.sol\":1606:1615  ethAmount */\n      dup5\n        /* \"contracts/FundMe.sol\":1595:1603  ethPrice */\n      dup4\n        /* \"contracts/FundMe.sol\":1595:1615  ethPrice * ethAmount */\n      tag_36\n      swap2\n      swap1\n      tag_37\n      jump\t// in\n    tag_36:\n        /* \"contracts/FundMe.sol\":1594:1623  (ethPrice * ethAmount) / 1e18 */\n      tag_38\n      swap2\n      swap1\n      tag_39\n      jump\t// in\n    tag_38:\n        /* \"contracts/FundMe.sol\":1569:1623  uint256 ethAmountInUsd = (ethPrice * ethAmount) / 1e18 */\n      swap1\n      pop\n        /* \"contracts/FundMe.sol\":1656:1670  ethAmountInUsd */\n      dup1\n        /* \"contracts/FundMe.sol\":1649:1670  return ethAmountInUsd */\n      swap3\n      pop\n      pop\n      pop\n        /* \"contracts/FundMe.sol\":1361:1677  function getConversionRate(uint256 ethAmount) public view returns(uint256) {... */\n      swap2\n      swap1\n      pop\n      jump\t// out\n        /* \"contracts/FundMe.sol\":741:1147  function getPrice() public view returns(uint256) {... */\n    tag_24:\n        /* \"contracts/FundMe.sol\":781:788  uint256 */\n      0x00\n        /* \"contracts/FundMe.sol\":877:908  AggregatorV3Interface priceFeed */\n      dup1\n        /* \"contracts/FundMe.sol\":933:975  0x8A753747A1Fa494EC906cE90E9f37563A8AF630e */\n      0x8a753747a1fa494ec906ce90e9f37563a8af630e\n        /* \"contracts/FundMe.sol\":877:976  AggregatorV3Interface priceFeed = AggregatorV3Interface(0x8A753747A1Fa494EC906cE90E9f37563A8AF630e) */\n      swap1\n      pop\n        /* \"contracts/FundMe.sol\":988:997  int price */\n      0x00\n        /* \"contracts/FundMe.sol\":1004:1013  priceFeed */\n      dup2\n        /* \"contracts/FundMe.sol\":1004:1029  priceFeed.latestRoundData */\n      0xffffffffffffffffffffffffffffffffffffffff\n      and\n      0xfeaf968c\n        /* \"contracts/FundMe.sol\":1004:1031  priceFeed.latestRoundData() */\n      mload(0x40)\n      dup2\n      0xffffffff\n      and\n      0xe0\n      shl\n      dup2\n      mstore\n      0x04\n      add\n      0xa0\n      mload(0x40)\n      dup1\n      dup4\n      sub\n      dup2\n      dup7\n      dup1\n      extcodesize\n      iszero\n      dup1\n      iszero\n      tag_41\n      jumpi\n      0x00\n      dup1\n      revert\n    tag_41:\n      pop\n      gas\n      staticcall\n      iszero\n      dup1\n      iszero\n      tag_43\n      jumpi\n      returndatasize\n      0x00\n      dup1\n      returndatacopy\n      revert(0x00, returndatasize)\n    tag_43:\n      pop\n      pop\n      pop\n      pop\n      mload(0x40)\n      returndatasize\n      not(0x1f)\n      0x1f\n      dup3\n      add\n      and\n      dup3\n      add\n      dup1\n      0x40\n      mstore\n      pop\n      dup2\n      add\n      swap1\n      tag_44\n      swap2\n      swap1\n      tag_45\n      jump\t// in\n    tag_44:\n        /* \"contracts/FundMe.sol\":986:1031  (,int price,,,) = priceFeed.latestRoundData() */\n      pop\n      pop\n      pop\n      swap2\n      pop\n      pop\n        /* \"contracts/FundMe.sol\":1111:1115  1e10 */\n      0x02540be400\n        /* \"contracts/FundMe.sol\":1103:1108  price */\n      dup2\n        /* \"contracts/FundMe.sol\":1103:1115  price * 1e10 */\n      tag_46\n      swap2\n      swap1\n      tag_47\n      jump\t// in\n    tag_46:\n        /* \"contracts/FundMe.sol\":1088:1116  return uint256(price * 1e10) */\n      swap3\n      pop\n      pop\n      pop\n        /* \"contracts/FundMe.sol\":741:1147  function getPrice() public view returns(uint256) {... */\n      swap1\n      jump\t// out\n        /* \"contracts/FundMe.sol\":354:707  function fund() public payable {... */\n    tag_27:\n        /* \"contracts/FundMe.sol\":612:622  minimumUSD */\n      sload(0x00)\n        /* \"contracts/FundMe.sol\":580:608  getConversionRate(msg.value) */\n      tag_49\n        /* \"contracts/FundMe.sol\":598:607  msg.value */\n      callvalue\n        /* \"contracts/FundMe.sol\":580:597  getConversionRate */\n      tag_20\n        /* \"contracts/FundMe.sol\":580:608  getConversionRate(msg.value) */\n      jump\t// in\n    tag_49:\n        /* \"contracts/FundMe.sol\":580:622  getConversionRate(msg.value) >= minimumUSD */\n      lt\n      iszero\n        /* \"contracts/FundMe.sol\":571:652  require (getConversionRate(msg.value) >= minimumUSD, \"Didn't send enough eeeeth\") */\n      tag_50\n      jumpi\n      mload(0x40)\n      0x08c379a000000000000000000000000000000000000000000000000000000000\n      dup2\n      mstore\n      0x04\n      add\n      tag_51\n      swap1\n      tag_52\n      jump\t// in\n    tag_51:\n      mload(0x40)\n      dup1\n      swap2\n      sub\n      swap1\n      revert\n    tag_50:\n        /* \"contracts/FundMe.sol\":354:707  function fund() public payable {... */\n      jump\t// out\n        /* \"#utility.yul\":7:84   */\n    tag_53:\n        /* \"#utility.yul\":44:51   */\n      0x00\n        /* \"#utility.yul\":73:78   */\n      dup2\n        /* \"#utility.yul\":62:78   */\n      swap1\n      pop\n        /* \"#utility.yul\":7:84   */\n      swap2\n      swap1\n      pop\n      jump\t// out\n        /* \"#utility.yul\":90:208   */\n    tag_54:\n        /* \"#utility.yul\":177:201   */\n      tag_75\n        /* \"#utility.yul\":195:200   */\n      dup2\n        /* \"#utility.yul\":177:201   */\n      tag_53\n      jump\t// in\n    tag_75:\n        /* \"#utility.yul\":172:175   */\n      dup3\n        /* \"#utility.yul\":165:202   */\n      mstore\n        /* \"#utility.yul\":90:208   */\n      pop\n      pop\n      jump\t// out\n        /* \"#utility.yul\":214:436   */\n    tag_11:\n        /* \"#utility.yul\":307:311   */\n      0x00\n        /* \"#utility.yul\":345:347   */\n      0x20\n        /* \"#utility.yul\":334:343   */\n      dup3\n        /* \"#utility.yul\":330:348   */\n      add\n        /* \"#utility.yul\":322:348   */\n      swap1\n      pop\n        /* \"#utility.yul\":358:429   */\n      tag_77\n        /* \"#utility.yul\":426:427   */\n      0x00\n        /* \"#utility.yul\":415:424   */\n      dup4\n        /* \"#utility.yul\":411:428   */\n      add\n        /* \"#utility.yul\":402:408   */\n      dup5\n        /* \"#utility.yul\":358:429   */\n      tag_54\n      jump\t// in\n    tag_77:\n        /* \"#utility.yul\":214:436   */\n      swap3\n      swap2\n      pop\n      pop\n      jump\t// out\n        /* \"#utility.yul\":523:640   */\n    tag_56:\n        /* \"#utility.yul\":632:633   */\n      0x00\n        /* \"#utility.yul\":629:630   */\n      dup1\n        /* \"#utility.yul\":622:634   */\n      revert\n        /* \"#utility.yul\":769:891   */\n    tag_58:\n        /* \"#utility.yul\":842:866   */\n      tag_82\n        /* \"#utility.yul\":860:865   */\n      dup2\n        /* \"#utility.yul\":842:866   */\n      tag_53\n      jump\t// in\n    tag_82:\n        /* \"#utility.yul\":835:840   */\n      dup2\n        /* \"#utility.yul\":832:867   */\n      eq\n        /* \"#utility.yul\":822:885   */\n      tag_83\n      jumpi\n        /* \"#utility.yul\":881:882   */\n      0x00\n        /* \"#utility.yul\":878:879   */\n      dup1\n        /* \"#utility.yul\":871:883   */\n      revert\n        /* \"#utility.yul\":822:885   */\n    tag_83:\n        /* \"#utility.yul\":769:891   */\n      pop\n      jump\t// out\n        /* \"#utility.yul\":897:1036   */\n    tag_59:\n        /* \"#utility.yul\":943:948   */\n      0x00\n        /* \"#utility.yul\":981:987   */\n      dup2\n        /* \"#utility.yul\":968:988   */\n      calldataload\n        /* \"#utility.yul\":959:988   */\n      swap1\n      pop\n        /* \"#utility.yul\":997:1030   */\n      tag_85\n        /* \"#utility.yul\":1024:1029   */\n      dup2\n        /* \"#utility.yul\":997:1030   */\n      tag_58\n      jump\t// in\n    tag_85:\n        /* \"#utility.yul\":897:1036   */\n      swap3\n      swap2\n      pop\n      pop\n      jump\t// out\n        /* \"#utility.yul\":1042:1371   */\n    tag_19:\n        /* \"#utility.yul\":1101:1107   */\n      0x00\n        /* \"#utility.yul\":1150:1152   */\n      0x20\n        /* \"#utility.yul\":1138:1147   */\n      dup3\n        /* \"#utility.yul\":1129:1136   */\n      dup5\n        /* \"#utility.yul\":1125:1148   */\n      sub\n        /* \"#utility.yul\":1121:1153   */\n      slt\n        /* \"#utility.yul\":1118:1237   */\n      iszero\n      tag_87\n      jumpi\n        /* \"#utility.yul\":1156:1235   */\n      tag_88\n      tag_56\n      jump\t// in\n    tag_88:\n        /* \"#utility.yul\":1118:1237   */\n    tag_87:\n        /* \"#utility.yul\":1276:1277   */\n      0x00\n        /* \"#utility.yul\":1301:1354   */\n      tag_89\n        /* \"#utility.yul\":1346:1353   */\n      dup5\n        /* \"#utility.yul\":1337:1343   */\n      dup3\n        /* \"#utility.yul\":1326:1335   */\n      dup6\n        /* \"#utility.yul\":1322:1344   */\n      add\n        /* \"#utility.yul\":1301:1354   */\n      tag_59\n      jump\t// in\n    tag_89:\n        /* \"#utility.yul\":1291:1354   */\n      swap2\n      pop\n        /* \"#utility.yul\":1247:1364   */\n      pop\n        /* \"#utility.yul\":1042:1371   */\n      swap3\n      swap2\n      pop\n      pop\n      jump\t// out\n        /* \"#utility.yul\":1377:1520   */\n    tag_60:\n        /* \"#utility.yul\":1434:1439   */\n      0x00\n        /* \"#utility.yul\":1465:1471   */\n      dup2\n        /* \"#utility.yul\":1459:1472   */\n      mload\n        /* \"#utility.yul\":1450:1472   */\n      swap1\n      pop\n        /* \"#utility.yul\":1481:1514   */\n      tag_91\n        /* \"#utility.yul\":1508:1513   */\n      dup2\n        /* \"#utility.yul\":1481:1514   */\n      tag_58\n      jump\t// in\n    tag_91:\n        /* \"#utility.yul\":1377:1520   */\n      swap3\n      swap2\n      pop\n      pop\n      jump\t// out\n        /* \"#utility.yul\":1526:1877   */\n    tag_33:\n        /* \"#utility.yul\":1596:1602   */\n      0x00\n        /* \"#utility.yul\":1645:1647   */\n      0x20\n        /* \"#utility.yul\":1633:1642   */\n      dup3\n        /* \"#utility.yul\":1624:1631   */\n      dup5\n        /* \"#utility.yul\":1620:1643   */\n      sub\n        /* \"#utility.yul\":1616:1648   */\n      slt\n        /* \"#utility.yul\":1613:1732   */\n      iszero\n      tag_93\n      jumpi\n        /* \"#utility.yul\":1651:1730   */\n      tag_94\n      tag_56\n      jump\t// in\n    tag_94:\n        /* \"#utility.yul\":1613:1732   */\n    tag_93:\n        /* \"#utility.yul\":1771:1772   */\n      0x00\n        /* \"#utility.yul\":1796:1860   */\n      tag_95\n        /* \"#utility.yul\":1852:1859   */\n      dup5\n        /* \"#utility.yul\":1843:1849   */\n      dup3\n        /* \"#utility.yul\":1832:1841   */\n      dup6\n        /* \"#utility.yul\":1828:1850   */\n      add\n        /* \"#utility.yul\":1796:1860   */\n      tag_60\n      jump\t// in\n    tag_95:\n        /* \"#utility.yul\":1786:1860   */\n      swap2\n      pop\n        /* \"#utility.yul\":1742:1870   */\n      pop\n        /* \"#utility.yul\":1526:1877   */\n      swap3\n      swap2\n      pop\n      pop\n      jump\t// out\n        /* \"#utility.yul\":1883:2063   */\n    tag_61:\n        /* \"#utility.yul\":1931:2008   */\n      0x4e487b7100000000000000000000000000000000000000000000000000000000\n        /* \"#utility.yul\":1928:1929   */\n      0x00\n        /* \"#utility.yul\":1921:2009   */\n      mstore\n        /* \"#utility.yul\":2028:2032   */\n      0x11\n        /* \"#utility.yul\":2025:2026   */\n      0x04\n        /* \"#utility.yul\":2018:2033   */\n      mstore\n        /* \"#utility.yul\":2052:2056   */\n      0x24\n        /* \"#utility.yul\":2049:2050   */\n      0x00\n        /* \"#utility.yul\":2042:2057   */\n      revert\n        /* \"#utility.yul\":2069:2417   */\n    tag_37:\n        /* \"#utility.yul\":2109:2116   */\n      0x00\n        /* \"#utility.yul\":2132:2152   */\n      tag_98\n        /* \"#utility.yul\":2150:2151   */\n      dup3\n        /* \"#utility.yul\":2132:2152   */\n      tag_53\n      jump\t// in\n    tag_98:\n        /* \"#utility.yul\":2127:2152   */\n      swap2\n      pop\n        /* \"#utility.yul\":2166:2186   */\n      tag_99\n        /* \"#utility.yul\":2184:2185   */\n      dup4\n        /* \"#utility.yul\":2166:2186   */\n      tag_53\n      jump\t// in\n    tag_99:\n        /* \"#utility.yul\":2161:2186   */\n      swap3\n      pop\n        /* \"#utility.yul\":2354:2355   */\n      dup2\n        /* \"#utility.yul\":2286:2352   */\n      0xffffffffffffffffffffffffffffffffffffffffffffffffffffffffffffffff\n        /* \"#utility.yul\":2282:2356   */\n      div\n        /* \"#utility.yul\":2279:2280   */\n      dup4\n        /* \"#utility.yul\":2276:2357   */\n      gt\n        /* \"#utility.yul\":2271:2272   */\n      dup3\n        /* \"#utility.yul\":2264:2273   */\n      iszero\n        /* \"#utility.yul\":2257:2274   */\n      iszero\n        /* \"#utility.yul\":2253:2358   */\n      and\n        /* \"#utility.yul\":2250:2381   */\n      iszero\n      tag_100\n      jumpi\n        /* \"#utility.yul\":2361:2379   */\n      tag_101\n      tag_61\n      jump\t// in\n    tag_101:\n        /* \"#utility.yul\":2250:2381   */\n    tag_100:\n        /* \"#utility.yul\":2409:2410   */\n      dup3\n        /* \"#utility.yul\":2406:2407   */\n      dup3\n        /* \"#utility.yul\":2402:2411   */\n      mul\n        /* \"#utility.yul\":2391:2411   */\n      swap1\n      pop\n        /* \"#utility.yul\":2069:2417   */\n      swap3\n      swap2\n      pop\n      pop\n      jump\t// out\n        /* \"#utility.yul\":2423:2603   */\n    tag_62:\n        /* \"#utility.yul\":2471:2548   */\n      0x4e487b7100000000000000000000000000000000000000000000000000000000\n        /* \"#utility.yul\":2468:2469   */\n      0x00\n        /* \"#utility.yul\":2461:2549   */\n      mstore\n        /* \"#utility.yul\":2568:2572   */\n      0x12\n        /* \"#utility.yul\":2565:2566   */\n      0x04\n        /* \"#utility.yul\":2558:2573   */\n      mstore\n        /* \"#utility.yul\":2592:2596   */\n      0x24\n        /* \"#utility.yul\":2589:2590   */\n      0x00\n        /* \"#utility.yul\":2582:2597   */\n      revert\n        /* \"#utility.yul\":2609:2794   */\n    tag_39:\n        /* \"#utility.yul\":2649:2650   */\n      0x00\n        /* \"#utility.yul\":2666:2686   */\n      tag_104\n        /* \"#utility.yul\":2684:2685   */\n      dup3\n        /* \"#utility.yul\":2666:2686   */\n      tag_53\n      jump\t// in\n    tag_104:\n        /* \"#utility.yul\":2661:2686   */\n      swap2\n      pop\n        /* \"#utility.yul\":2700:2720   */\n      tag_105\n        /* \"#utility.yul\":2718:2719   */\n      dup4\n        /* \"#utility.yul\":2700:2720   */\n      tag_53\n      jump\t// in\n    tag_105:\n        /* \"#utility.yul\":2695:2720   */\n      swap3\n      pop\n        /* \"#utility.yul\":2739:2740   */\n      dup3\n        /* \"#utility.yul\":2729:2764   */\n      tag_106\n      jumpi\n        /* \"#utility.yul\":2744:2762   */\n      tag_107\n      tag_62\n      jump\t// in\n    tag_107:\n        /* \"#utility.yul\":2729:2764   */\n    tag_106:\n        /* \"#utility.yul\":2786:2787   */\n      dup3\n        /* \"#utility.yul\":2783:2784   */\n      dup3\n        /* \"#utility.yul\":2779:2788   */\n      div\n        /* \"#utility.yul\":2774:2788   */\n      swap1\n      pop\n        /* \"#utility.yul\":2609:2794   */\n      swap3\n      swap2\n      pop\n      pop\n      jump\t// out\n        /* \"#utility.yul\":2800:2905   */\n    tag_63:\n        /* \"#utility.yul\":2836:2843   */\n      0x00\n        /* \"#utility.yul\":2876:2898   */\n      0xffffffffffffffffffff\n        /* \"#utility.yul\":2869:2874   */\n      dup3\n        /* \"#utility.yul\":2865:2899   */\n      and\n        /* \"#utility.yul\":2854:2899   */\n      swap1\n      pop\n        /* \"#utility.yul\":2800:2905   */\n      swap2\n      swap1\n      pop\n      jump\t// out\n        /* \"#utility.yul\":2911:3031   */\n    tag_64:\n        /* \"#utility.yul\":2983:3006   */\n      tag_110\n        /* \"#utility.yul\":3000:3005   */\n      dup2\n        /* \"#utility.yul\":2983:3006   */\n      tag_63\n      jump\t// in\n    tag_110:\n        /* \"#utility.yul\":2976:2981   */\n      dup2\n        /* \"#utility.yul\":2973:3007   */\n      eq\n        /* \"#utility.yul\":2963:3025   */\n      tag_111\n      jumpi\n        /* \"#utility.yul\":3021:3022   */\n      0x00\n        /* \"#utility.yul\":3018:3019   */\n      dup1\n        /* \"#utility.yul\":3011:3023   */\n      revert\n        /* \"#utility.yul\":2963:3025   */\n    tag_111:\n        /* \"#utility.yul\":2911:3031   */\n      pop\n      jump\t// out\n        /* \"#utility.yul\":3037:3178   */\n    tag_65:\n        /* \"#utility.yul\":3093:3098   */\n      0x00\n        /* \"#utility.yul\":3124:3130   */\n      dup2\n        /* \"#utility.yul\":3118:3131   */\n      mload\n        /* \"#utility.yul\":3109:3131   */\n      swap1\n      pop\n        /* \"#utility.yul\":3140:3172   */\n      tag_113\n        /* \"#utility.yul\":3166:3171   */\n      dup2\n        /* \"#utility.yul\":3140:3172   */\n      tag_64\n      jump\t// in\n    tag_113:\n        /* \"#utility.yul\":3037:3178   */\n      swap3\n      swap2\n      pop\n      pop\n      jump\t// out\n        /* \"#utility.yul\":3184:3260   */\n    tag_66:\n        /* \"#utility.yul\":3220:3227   */\n      0x00\n        /* \"#utility.yul\":3249:3254   */\n      dup2\n        /* \"#utility.yul\":3238:3254   */\n      swap1\n      pop\n        /* \"#utility.yul\":3184:3260   */\n      swap2\n      swap1\n      pop\n      jump\t// out\n        /* \"#utility.yul\":3266:3386   */\n    tag_67:\n        /* \"#utility.yul\":3338:3361   */\n      tag_116\n        /* \"#utility.yul\":3355:3360   */\n      dup2\n        /* \"#utility.yul\":3338:3361   */\n      tag_66\n      jump\t// in\n    tag_116:\n        /* \"#utility.yul\":3331:3336   */\n      dup2\n        /* \"#utility.yul\":3328:3362   */\n      eq\n        /* \"#utility.yul\":3318:3380   */\n      tag_117\n      jumpi\n        /* \"#utility.yul\":3376:3377   */\n      0x00\n        /* \"#utility.yul\":3373:3374   */\n      dup1\n        /* \"#utility.yul\":3366:3378   */\n      revert\n        /* \"#utility.yul\":3318:3380   */\n    tag_117:\n        /* \"#utility.yul\":3266:3386   */\n      pop\n      jump\t// out\n        /* \"#utility.yul\":3392:3533   */\n    tag_68:\n        /* \"#utility.yul\":3448:3453   */\n      0x00\n        /* \"#utility.yul\":3479:3485   */\n      dup2\n        /* \"#utility.yul\":3473:3486   */\n      mload\n        /* \"#utility.yul\":3464:3486   */\n      swap1\n      pop\n        /* \"#utility.yul\":3495:3527   */\n      tag_119\n        /* \"#utility.yul\":3521:3526   */\n      dup2\n        /* \"#utility.yul\":3495:3527   */\n      tag_67\n      jump\t// in\n    tag_119:\n        /* \"#utility.yul\":3392:3533   */\n      swap3\n      swap2\n      pop\n      pop\n      jump\t// out\n        /* \"#utility.yul\":3539:4510   */\n    tag_45:\n        /* \"#utility.yul\":3642:3648   */\n      0x00\n        /* \"#utility.yul\":3650:3656   */\n      dup1\n        /* \"#utility.yul\":3658:3664   */\n      0x00\n        /* \"#utility.yul\":3666:3672   */\n      dup1\n        /* \"#utility.yul\":3674:3680   */\n      0x00\n        /* \"#utility.yul\":3723:3726   */\n      0xa0\n        /* \"#utility.yul\":3711:3720   */\n      dup7\n        /* \"#utility.yul\":3702:3709   */\n      dup9\n        /* \"#utility.yul\":3698:3721   */\n      sub\n        /* \"#utility.yul\":3694:3727   */\n      slt\n        /* \"#utility.yul\":3691:3811   */\n      iszero\n      tag_121\n      jumpi\n        /* \"#utility.yul\":3730:3809   */\n      tag_122\n      tag_56\n      jump\t// in\n    tag_122:\n        /* \"#utility.yul\":3691:3811   */\n    tag_121:\n        /* \"#utility.yul\":3850:3851   */\n      0x00\n        /* \"#utility.yul\":3875:3938   */\n      tag_123\n        /* \"#utility.yul\":3930:3937   */\n      dup9\n        /* \"#utility.yul\":3921:3927   */\n      dup3\n        /* \"#utility.yul\":3910:3919   */\n      dup10\n        /* \"#utility.yul\":3906:3928   */\n      add\n        /* \"#utility.yul\":3875:3938   */\n      tag_65\n      jump\t// in\n    tag_123:\n        /* \"#utility.yul\":3865:3938   */\n      swap6\n      pop\n        /* \"#utility.yul\":3821:3948   */\n      pop\n        /* \"#utility.yul\":3987:3989   */\n      0x20\n        /* \"#utility.yul\":4013:4076   */\n      tag_124\n        /* \"#utility.yul\":4068:4075   */\n      dup9\n        /* \"#utility.yul\":4059:4065   */\n      dup3\n        /* \"#utility.yul\":4048:4057   */\n      dup10\n        /* \"#utility.yul\":4044:4066   */\n      add\n        /* \"#utility.yul\":4013:4076   */\n      tag_68\n      jump\t// in\n    tag_124:\n        /* \"#utility.yul\":4003:4076   */\n      swap5\n      pop\n        /* \"#utility.yul\":3958:4086   */\n      pop\n        /* \"#utility.yul\":4125:4127   */\n      0x40\n        /* \"#utility.yul\":4151:4215   */\n      tag_125\n        /* \"#utility.yul\":4207:4214   */\n      dup9\n        /* \"#utility.yul\":4198:4204   */\n      dup3\n        /* \"#utility.yul\":4187:4196   */\n      dup10\n        /* \"#utility.yul\":4183:4205   */\n      add\n        /* \"#utility.yul\":4151:4215   */\n      tag_60\n      jump\t// in\n    tag_125:\n        /* \"#utility.yul\":4141:4215   */\n      swap4\n      pop\n        /* \"#utility.yul\":4096:4225   */\n      pop\n        /* \"#utility.yul\":4264:4266   */\n      0x60\n        /* \"#utility.yul\":4290:4354   */\n      tag_126\n        /* \"#utility.yul\":4346:4353   */\n      dup9\n        /* \"#utility.yul\":4337:4343   */\n      dup3\n        /* \"#utility.yul\":4326:4335   */\n      dup10\n        /* \"#utility.yul\":4322:4344   */\n      add\n        /* \"#utility.yul\":4290:4354   */\n      tag_60\n      jump\t// in\n    tag_126:\n        /* \"#utility.yul\":4280:4354   */\n      swap3\n      pop\n        /* \"#utility.yul\":4235:4364   */\n      pop\n        /* \"#utility.yul\":4403:4406   */\n      0x80\n        /* \"#utility.yul\":4430:4493   */\n      tag_127\n        /* \"#utility.yul\":4485:4492   */\n      dup9\n        /* \"#utility.yul\":4476:4482   */\n      dup3\n        /* \"#utility.yul\":4465:4474   */\n      dup10\n        /* \"#utility.yul\":4461:4483   */\n      add\n        /* \"#utility.yul\":4430:4493   */\n      tag_65\n      jump\t// in\n    tag_127:\n        /* \"#utility.yul\":4420:4493   */\n      swap2\n      pop\n        /* \"#utility.yul\":4374:4503   */\n      pop\n        /* \"#utility.yul\":3539:4510   */\n      swap3\n      swap6\n      pop\n      swap3\n      swap6\n      swap1\n      swap4\n      pop\n      jump\t// out\n        /* \"#utility.yul\":4516:5507   */\n    tag_47:\n        /* \"#utility.yul\":4555:4562   */\n      0x00\n        /* \"#utility.yul\":4578:4597   */\n      tag_129\n        /* \"#utility.yul\":4595:4596   */\n      dup3\n        /* \"#utility.yul\":4578:4597   */\n      tag_66\n      jump\t// in\n    tag_129:\n        /* \"#utility.yul\":4573:4597   */\n      swap2\n      pop\n        /* \"#utility.yul\":4611:4630   */\n      tag_130\n        /* \"#utility.yul\":4628:4629   */\n      dup4\n        /* \"#utility.yul\":4611:4630   */\n      tag_66\n      jump\t// in\n    tag_130:\n        /* \"#utility.yul\":4606:4630   */\n      swap3\n      pop\n        /* \"#utility.yul\":4812:4813   */\n      dup3\n        /* \"#utility.yul\":4744:4810   */\n      0x7fffffffffffffffffffffffffffffffffffffffffffffffffffffffffffffff\n        /* \"#utility.yul\":4740:4814   */\n      div\n        /* \"#utility.yul\":4737:4738   */\n      dup3\n        /* \"#utility.yul\":4734:4815   */\n      gt\n        /* \"#utility.yul\":4729:4730   */\n      0x00\n        /* \"#utility.yul\":4726:4727   */\n      dup5\n        /* \"#utility.yul\":4722:4731   */\n      sgt\n        /* \"#utility.yul\":4718:4719   */\n      0x00\n        /* \"#utility.yul\":4715:4716   */\n      dup5\n        /* \"#utility.yul\":4711:4720   */\n      sgt\n        /* \"#utility.yul\":4707:4732   */\n      and\n        /* \"#utility.yul\":4703:4816   */\n      and\n        /* \"#utility.yul\":4700:4839   */\n      iszero\n      tag_131\n      jumpi\n        /* \"#utility.yul\":4819:4837   */\n      tag_132\n      tag_61\n      jump\t// in\n    tag_132:\n        /* \"#utility.yul\":4700:4839   */\n    tag_131:\n        /* \"#utility.yul\":5023:5024   */\n      dup2\n        /* \"#utility.yul\":4955:5021   */\n      0x8000000000000000000000000000000000000000000000000000000000000000\n        /* \"#utility.yul\":4950:5025   */\n      sdiv\n        /* \"#utility.yul\":4947:4948   */\n      dup4\n        /* \"#utility.yul\":4943:5026   */\n      slt\n        /* \"#utility.yul\":4938:4939   */\n      0x00\n        /* \"#utility.yul\":4935:4936   */\n      dup5\n        /* \"#utility.yul\":4931:4940   */\n      slt\n        /* \"#utility.yul\":4927:4928   */\n      0x00\n        /* \"#utility.yul\":4924:4925   */\n      dup5\n        /* \"#utility.yul\":4920:4929   */\n      sgt\n        /* \"#utility.yul\":4916:4941   */\n      and\n        /* \"#utility.yul\":4912:5027   */\n      and\n        /* \"#utility.yul\":4909:5050   */\n      iszero\n      tag_133\n      jumpi\n        /* \"#utility.yul\":5030:5048   */\n      tag_134\n      tag_61\n      jump\t// in\n    tag_134:\n        /* \"#utility.yul\":4909:5050   */\n    tag_133:\n        /* \"#utility.yul\":5234:5235   */\n      dup3\n        /* \"#utility.yul\":5166:5232   */\n      0x8000000000000000000000000000000000000000000000000000000000000000\n        /* \"#utility.yul\":5161:5236   */\n      sdiv\n        /* \"#utility.yul\":5158:5159   */\n      dup3\n        /* \"#utility.yul\":5154:5237   */\n      slt\n        /* \"#utility.yul\":5149:5150   */\n      0x00\n        /* \"#utility.yul\":5146:5147   */\n      dup5\n        /* \"#utility.yul\":5142:5151   */\n      sgt\n        /* \"#utility.yul\":5138:5139   */\n      0x00\n        /* \"#utility.yul\":5135:5136   */\n      dup5\n        /* \"#utility.yul\":5131:5140   */\n      slt\n        /* \"#utility.yul\":5127:5152   */\n      and\n        /* \"#utility.yul\":5123:5238   */\n      and\n        /* \"#utility.yul\":5120:5261   */\n      iszero\n      tag_135\n      jumpi\n        /* \"#utility.yul\":5241:5259   */\n      tag_136\n      tag_61\n      jump\t// in\n    tag_136:\n        /* \"#utility.yul\":5120:5261   */\n    tag_135:\n        /* \"#utility.yul\":5444:5445   */\n      dup3\n        /* \"#utility.yul\":5376:5442   */\n      0x7fffffffffffffffffffffffffffffffffffffffffffffffffffffffffffffff\n        /* \"#utility.yul\":5371:5446   */\n      sdiv\n        /* \"#utility.yul\":5368:5369   */\n      dup3\n        /* \"#utility.yul\":5364:5447   */\n      slt\n        /* \"#utility.yul\":5359:5360   */\n      0x00\n        /* \"#utility.yul\":5356:5357   */\n      dup5\n        /* \"#utility.yul\":5352:5361   */\n      slt\n        /* \"#utility.yul\":5348:5349   */\n      0x00\n        /* \"#utility.yul\":5345:5346   */\n      dup5\n        /* \"#utility.yul\":5341:5350   */\n      slt\n        /* \"#utility.yul\":5337:5362   */\n      and\n        /* \"#utility.yul\":5333:5448   */\n      and\n        /* \"#utility.yul\":5330:5471   */\n      iszero\n      tag_137\n      jumpi\n        /* \"#utility.yul\":5451:5469   */\n      tag_138\n      tag_61\n      jump\t// in\n    tag_138:\n        /* \"#utility.yul\":5330:5471   */\n    tag_137:\n        /* \"#utility.yul\":5499:5500   */\n      dup3\n        /* \"#utility.yul\":5496:5497   */\n      dup3\n        /* \"#utility.yul\":5492:5501   */\n      mul\n        /* \"#utility.yul\":5481:5501   */\n      swap1\n      pop\n        /* \"#utility.yul\":4516:5507   */\n      swap3\n      swap2\n      pop\n      pop\n      jump\t// out\n        /* \"#utility.yul\":5513:5682   */\n    tag_69:\n        /* \"#utility.yul\":5597:5608   */\n      0x00\n        /* \"#utility.yul\":5631:5637   */\n      dup3\n        /* \"#utility.yul\":5626:5629   */\n      dup3\n        /* \"#utility.yul\":5619:5638   */\n      mstore\n        /* \"#utility.yul\":5671:5675   */\n      0x20\n        /* \"#utility.yul\":5666:5669   */\n      dup3\n        /* \"#utility.yul\":5662:5676   */\n      add\n        /* \"#utility.yul\":5647:5676   */\n      swap1\n      pop\n        /* \"#utility.yul\":5513:5682   */\n      swap3\n      swap2\n      pop\n      pop\n      jump\t// out\n        /* \"#utility.yul\":5688:5863   */\n    tag_70:\n        /* \"#utility.yul\":5828:5855   */\n      0x4469646e27742073656e6420656e6f7567682065656565746800000000000000\n        /* \"#utility.yul\":5824:5825   */\n      0x00\n        /* \"#utility.yul\":5816:5822   */\n      dup3\n        /* \"#utility.yul\":5812:5826   */\n      add\n        /* \"#utility.yul\":5805:5856   */\n      mstore\n        /* \"#utility.yul\":5688:5863   */\n      pop\n      jump\t// out\n        /* \"#utility.yul\":5869:6235   */\n    tag_71:\n        /* \"#utility.yul\":6011:6014   */\n      0x00\n        /* \"#utility.yul\":6032:6099   */\n      tag_142\n        /* \"#utility.yul\":6096:6098   */\n      0x19\n        /* \"#utility.yul\":6091:6094   */\n      dup4\n        /* \"#utility.yul\":6032:6099   */\n      tag_69\n      jump\t// in\n    tag_142:\n        /* \"#utility.yul\":6025:6099   */\n      swap2\n      pop\n        /* \"#utility.yul\":6108:6201   */\n      tag_143\n        /* \"#utility.yul\":6197:6200   */\n      dup3\n        /* \"#utility.yul\":6108:6201   */\n      tag_70\n      jump\t// in\n    tag_143:\n        /* \"#utility.yul\":6226:6228   */\n      0x20\n        /* \"#utility.yul\":6221:6224   */\n      dup3\n        /* \"#utility.yul\":6217:6229   */\n      add\n        /* \"#utility.yul\":6210:6229   */\n      swap1\n      pop\n        /* \"#utility.yul\":5869:6235   */\n      swap2\n      swap1\n      pop\n      jump\t// out\n        /* \"#utility.yul\":6241:6660   */\n    tag_52:\n        /* \"#utility.yul\":6407:6411   */\n      0x00\n        /* \"#utility.yul\":6445:6447   */\n      0x20\n        /* \"#utility.yul\":6434:6443   */\n      dup3\n        /* \"#utility.yul\":6430:6448   */\n      add\n        /* \"#utility.yul\":6422:6448   */\n      swap1\n      pop\n        /* \"#utility.yul\":6494:6503   */\n      dup2\n        /* \"#utility.yul\":6488:6492   */\n      dup2\n        /* \"#utility.yul\":6484:6504   */\n      sub\n        /* \"#utility.yul\":6480:6481   */\n      0x00\n        /* \"#utility.yul\":6469:6478   */\n      dup4\n        /* \"#utility.yul\":6465:6482   */\n      add\n        /* \"#utility.yul\":6458:6505   */\n      mstore\n        /* \"#utility.yul\":6522:6653   */\n      tag_145\n        /* \"#utility.yul\":6648:6652   */\n      dup2\n        /* \"#utility.yul\":6522:6653   */\n      tag_71\n      jump\t// in\n    tag_145:\n        /* \"#utility.yul\":6514:6653   */\n      swap1\n      pop\n        /* \"#utility.yul\":6241:6660   */\n      swap2\n      swap1\n      pop\n      jump\t// out\n\n    auxdata: 0xa26469706673582212208f07e0765a824339413d1474022906e296d39c0f8a7e30452e58cd6ad8153b6c64736f6c63430008080033\n}\n",
				"bytecode": {
					"linkReferences": {},
					"object": "60806040526802b5e3af16b188000060005534801561001d57600080fd5b506107768061002d6000396000f3fe60806040526004361061004a5760003560e01c80630d8e6e2c1461004f5780633430a88c1461007a5780636e5b6b28146100a557806398d5fdca146100e2578063b60d42881461010d575b600080fd5b34801561005b57600080fd5b50610064610117565b6040516100719190610315565b60405180910390f35b34801561008657600080fd5b5061008f6101b5565b60405161009c9190610315565b60405180910390f35b3480156100b157600080fd5b506100cc60048036038101906100c79190610361565b6101bb565b6040516100d99190610315565b60405180910390f35b3480156100ee57600080fd5b506100f76101f5565b6040516101049190610315565b60405180910390f35b6101156102ad565b005b600080738a753747a1fa494ec906ce90e9f37563a8af630e90508073ffffffffffffffffffffffffffffffffffffffff166354fd4d506040518163ffffffff1660e01b815260040160206040518083038186803b15801561017757600080fd5b505afa15801561018b573d6000803e3d6000fd5b505050506040513d601f19601f820116820180604052508101906101af91906103a3565b91505090565b60005481565b6000806101c66101f5565b90506000670de0b6b3a764000084836101df91906103ff565b6101e99190610488565b90508092505050919050565b600080738a753747a1fa494ec906ce90e9f37563a8af630e905060008173ffffffffffffffffffffffffffffffffffffffff1663feaf968c6040518163ffffffff1660e01b815260040160a06040518083038186803b15801561025757600080fd5b505afa15801561026b573d6000803e3d6000fd5b505050506040513d601f19601f8201168201806040525081019061028f9190610531565b5050509150506402540be400816102a691906105ac565b9250505090565b6000546102b9346101bb565b10156102fa576040517f08c379a00000000000000000000000000000000000000000000000000000000081526004016102f190610720565b60405180910390fd5b565b6000819050919050565b61030f816102fc565b82525050565b600060208201905061032a6000830184610306565b92915050565b600080fd5b61033e816102fc565b811461034957600080fd5b50565b60008135905061035b81610335565b92915050565b60006020828403121561037757610376610330565b5b60006103858482850161034c565b91505092915050565b60008151905061039d81610335565b92915050565b6000602082840312156103b9576103b8610330565b5b60006103c78482850161038e565b91505092915050565b7f4e487b7100000000000000000000000000000000000000000000000000000000600052601160045260246000fd5b600061040a826102fc565b9150610415836102fc565b9250817fffffffffffffffffffffffffffffffffffffffffffffffffffffffffffffffff048311821515161561044e5761044d6103d0565b5b828202905092915050565b7f4e487b7100000000000000000000000000000000000000000000000000000000600052601260045260246000fd5b6000610493826102fc565b915061049e836102fc565b9250826104ae576104ad610459565b5b828204905092915050565b600069ffffffffffffffffffff82169050919050565b6104d8816104b9565b81146104e357600080fd5b50565b6000815190506104f5816104cf565b92915050565b6000819050919050565b61050e816104fb565b811461051957600080fd5b50565b60008151905061052b81610505565b92915050565b600080600080600060a0868803121561054d5761054c610330565b5b600061055b888289016104e6565b955050602061056c8882890161051c565b945050604061057d8882890161038e565b935050606061058e8882890161038e565b925050608061059f888289016104e6565b9150509295509295909350565b60006105b7826104fb565b91506105c2836104fb565b9250827f7fffffffffffffffffffffffffffffffffffffffffffffffffffffffffffffff0482116000841360008413161615610601576106006103d0565b5b817f8000000000000000000000000000000000000000000000000000000000000000058312600084126000841316161561063e5761063d6103d0565b5b827f8000000000000000000000000000000000000000000000000000000000000000058212600084136000841216161561067b5761067a6103d0565b5b827f7fffffffffffffffffffffffffffffffffffffffffffffffffffffffffffffff05821260008412600084121616156106b8576106b76103d0565b5b828202905092915050565b600082825260208201905092915050565b7f4469646e27742073656e6420656e6f7567682065656565746800000000000000600082015250565b600061070a6019836106c3565b9150610715826106d4565b602082019050919050565b60006020820190508181036000830152610739816106fd565b905091905056fea26469706673582212208f07e0765a824339413d1474022906e296d39c0f8a7e30452e58cd6ad8153b6c64736f6c63430008080033",
					"opcodes": "PUSH1 0x80 PUSH1 0x40 MSTORE PUSH9 0x2B5E3AF16B1880000 PUSH1 0x0 SSTORE CALLVALUE DUP1 ISZERO PUSH2 0x1D JUMPI PUSH1 0x0 DUP1 REVERT JUMPDEST POP PUSH2 0x776 DUP1 PUSH2 0x2D PUSH1 0x0 CODECOPY PUSH1 0x0 RETURN INVALID PUSH1 0x80 PUSH1 0x40 MSTORE PUSH1 0x4 CALLDATASIZE LT PUSH2 0x4A JUMPI PUSH1 0x0 CALLDATALOAD PUSH1 0xE0 SHR DUP1 PUSH4 0xD8E6E2C EQ PUSH2 0x4F JUMPI DUP1 PUSH4 0x3430A88C EQ PUSH2 0x7A JUMPI DUP1 PUSH4 0x6E5B6B28 EQ PUSH2 0xA5 JUMPI DUP1 PUSH4 0x98D5FDCA EQ PUSH2 0xE2 JUMPI DUP1 PUSH4 0xB60D4288 EQ PUSH2 0x10D JUMPI JUMPDEST PUSH1 0x0 DUP1 REVERT JUMPDEST CALLVALUE DUP1 ISZERO PUSH2 0x5B JUMPI PUSH1 0x0 DUP1 REVERT JUMPDEST POP PUSH2 0x64 PUSH2 0x117 JUMP JUMPDEST PUSH1 0x40 MLOAD PUSH2 0x71 SWAP2 SWAP1 PUSH2 0x315 JUMP JUMPDEST PUSH1 0x40 MLOAD DUP1 SWAP2 SUB SWAP1 RETURN JUMPDEST CALLVALUE DUP1 ISZERO PUSH2 0x86 JUMPI PUSH1 0x0 DUP1 REVERT JUMPDEST POP PUSH2 0x8F PUSH2 0x1B5 JUMP JUMPDEST PUSH1 0x40 MLOAD PUSH2 0x9C SWAP2 SWAP1 PUSH2 0x315 JUMP JUMPDEST PUSH1 0x40 MLOAD DUP1 SWAP2 SUB SWAP1 RETURN JUMPDEST CALLVALUE DUP1 ISZERO PUSH2 0xB1 JUMPI PUSH1 0x0 DUP1 REVERT JUMPDEST POP PUSH2 0xCC PUSH1 0x4 DUP1 CALLDATASIZE SUB DUP2 ADD SWAP1 PUSH2 0xC7 SWAP2 SWAP1 PUSH2 0x361 JUMP JUMPDEST PUSH2 0x1BB JUMP JUMPDEST PUSH1 0x40 MLOAD PUSH2 0xD9 SWAP2 SWAP1 PUSH2 0x315 JUMP JUMPDEST PUSH1 0x40 MLOAD DUP1 SWAP2 SUB SWAP1 RETURN JUMPDEST CALLVALUE DUP1 ISZERO PUSH2 0xEE JUMPI PUSH1 0x0 DUP1 REVERT JUMPDEST POP PUSH2 0xF7 PUSH2 0x1F5 JUMP JUMPDEST PUSH1 0x40 MLOAD PUSH2 0x104 SWAP2 SWAP1 PUSH2 0x315 JUMP JUMPDEST PUSH1 0x40 MLOAD DUP1 SWAP2 SUB SWAP1 RETURN JUMPDEST PUSH2 0x115 PUSH2 0x2AD JUMP JUMPDEST STOP JUMPDEST PUSH1 0x0 DUP1 PUSH20 0x8A753747A1FA494EC906CE90E9F37563A8AF630E SWAP1 POP DUP1 PUSH20 0xFFFFFFFFFFFFFFFFFFFFFFFFFFFFFFFFFFFFFFFF AND PUSH4 0x54FD4D50 PUSH1 0x40 MLOAD DUP2 PUSH4 0xFFFFFFFF AND PUSH1 0xE0 SHL DUP2 MSTORE PUSH1 0x4 ADD PUSH1 0x20 PUSH1 0x40 MLOAD DUP1 DUP4 SUB DUP2 DUP7 DUP1 EXTCODESIZE ISZERO DUP1 ISZERO PUSH2 0x177 JUMPI PUSH1 0x0 DUP1 REVERT JUMPDEST POP GAS STATICCALL ISZERO DUP1 ISZERO PUSH2 0x18B JUMPI RETURNDATASIZE PUSH1 0x0 DUP1 RETURNDATACOPY RETURNDATASIZE PUSH1 0x0 REVERT JUMPDEST POP POP POP POP PUSH1 0x40 MLOAD RETURNDATASIZE PUSH1 0x1F NOT PUSH1 0x1F DUP3 ADD AND DUP3 ADD DUP1 PUSH1 0x40 MSTORE POP DUP2 ADD SWAP1 PUSH2 0x1AF SWAP2 SWAP1 PUSH2 0x3A3 JUMP JUMPDEST SWAP2 POP POP SWAP1 JUMP JUMPDEST PUSH1 0x0 SLOAD DUP2 JUMP JUMPDEST PUSH1 0x0 DUP1 PUSH2 0x1C6 PUSH2 0x1F5 JUMP JUMPDEST SWAP1 POP PUSH1 0x0 PUSH8 0xDE0B6B3A7640000 DUP5 DUP4 PUSH2 0x1DF SWAP2 SWAP1 PUSH2 0x3FF JUMP JUMPDEST PUSH2 0x1E9 SWAP2 SWAP1 PUSH2 0x488 JUMP JUMPDEST SWAP1 POP DUP1 SWAP3 POP POP POP SWAP2 SWAP1 POP JUMP JUMPDEST PUSH1 0x0 DUP1 PUSH20 0x8A753747A1FA494EC906CE90E9F37563A8AF630E SWAP1 POP PUSH1 0x0 DUP2 PUSH20 0xFFFFFFFFFFFFFFFFFFFFFFFFFFFFFFFFFFFFFFFF AND PUSH4 0xFEAF968C PUSH1 0x40 MLOAD DUP2 PUSH4 0xFFFFFFFF AND PUSH1 0xE0 SHL DUP2 MSTORE PUSH1 0x4 ADD PUSH1 0xA0 PUSH1 0x40 MLOAD DUP1 DUP4 SUB DUP2 DUP7 DUP1 EXTCODESIZE ISZERO DUP1 ISZERO PUSH2 0x257 JUMPI PUSH1 0x0 DUP1 REVERT JUMPDEST POP GAS STATICCALL ISZERO DUP1 ISZERO PUSH2 0x26B JUMPI RETURNDATASIZE PUSH1 0x0 DUP1 RETURNDATACOPY RETURNDATASIZE PUSH1 0x0 REVERT JUMPDEST POP POP POP POP PUSH1 0x40 MLOAD RETURNDATASIZE PUSH1 0x1F NOT PUSH1 0x1F DUP3 ADD AND DUP3 ADD DUP1 PUSH1 0x40 MSTORE POP DUP2 ADD SWAP1 PUSH2 0x28F SWAP2 SWAP1 PUSH2 0x531 JUMP JUMPDEST POP POP POP SWAP2 POP POP PUSH5 0x2540BE400 DUP2 PUSH2 0x2A6 SWAP2 SWAP1 PUSH2 0x5AC JUMP JUMPDEST SWAP3 POP POP POP SWAP1 JUMP JUMPDEST PUSH1 0x0 SLOAD PUSH2 0x2B9 CALLVALUE PUSH2 0x1BB JUMP JUMPDEST LT ISZERO PUSH2 0x2FA JUMPI PUSH1 0x40 MLOAD PUSH32 0x8C379A000000000000000000000000000000000000000000000000000000000 DUP2 MSTORE PUSH1 0x4 ADD PUSH2 0x2F1 SWAP1 PUSH2 0x720 JUMP JUMPDEST PUSH1 0x40 MLOAD DUP1 SWAP2 SUB SWAP1 REVERT JUMPDEST JUMP JUMPDEST PUSH1 0x0 DUP2 SWAP1 POP SWAP2 SWAP1 POP JUMP JUMPDEST PUSH2 0x30F DUP2 PUSH2 0x2FC JUMP JUMPDEST DUP3 MSTORE POP POP JUMP JUMPDEST PUSH1 0x0 PUSH1 0x20 DUP3 ADD SWAP1 POP PUSH2 0x32A PUSH1 0x0 DUP4 ADD DUP5 PUSH2 0x306 JUMP JUMPDEST SWAP3 SWAP2 POP POP JUMP JUMPDEST PUSH1 0x0 DUP1 REVERT JUMPDEST PUSH2 0x33E DUP2 PUSH2 0x2FC JUMP JUMPDEST DUP2 EQ PUSH2 0x349 JUMPI PUSH1 0x0 DUP1 REVERT JUMPDEST POP JUMP JUMPDEST PUSH1 0x0 DUP2 CALLDATALOAD SWAP1 POP PUSH2 0x35B DUP2 PUSH2 0x335 JUMP JUMPDEST SWAP3 SWAP2 POP POP JUMP JUMPDEST PUSH1 0x0 PUSH1 0x20 DUP3 DUP5 SUB SLT ISZERO PUSH2 0x377 JUMPI PUSH2 0x376 PUSH2 0x330 JUMP JUMPDEST JUMPDEST PUSH1 0x0 PUSH2 0x385 DUP5 DUP3 DUP6 ADD PUSH2 0x34C JUMP JUMPDEST SWAP2 POP POP SWAP3 SWAP2 POP POP JUMP JUMPDEST PUSH1 0x0 DUP2 MLOAD SWAP1 POP PUSH2 0x39D DUP2 PUSH2 0x335 JUMP JUMPDEST SWAP3 SWAP2 POP POP JUMP JUMPDEST PUSH1 0x0 PUSH1 0x20 DUP3 DUP5 SUB SLT ISZERO PUSH2 0x3B9 JUMPI PUSH2 0x3B8 PUSH2 0x330 JUMP JUMPDEST JUMPDEST PUSH1 0x0 PUSH2 0x3C7 DUP5 DUP3 DUP6 ADD PUSH2 0x38E JUMP JUMPDEST SWAP2 POP POP SWAP3 SWAP2 POP POP JUMP JUMPDEST PUSH32 0x4E487B7100000000000000000000000000000000000000000000000000000000 PUSH1 0x0 MSTORE PUSH1 0x11 PUSH1 0x4 MSTORE PUSH1 0x24 PUSH1 0x0 REVERT JUMPDEST PUSH1 0x0 PUSH2 0x40A DUP3 PUSH2 0x2FC JUMP JUMPDEST SWAP2 POP PUSH2 0x415 DUP4 PUSH2 0x2FC JUMP JUMPDEST SWAP3 POP DUP2 PUSH32 0xFFFFFFFFFFFFFFFFFFFFFFFFFFFFFFFFFFFFFFFFFFFFFFFFFFFFFFFFFFFFFFFF DIV DUP4 GT DUP3 ISZERO ISZERO AND ISZERO PUSH2 0x44E JUMPI PUSH2 0x44D PUSH2 0x3D0 JUMP JUMPDEST JUMPDEST DUP3 DUP3 MUL SWAP1 POP SWAP3 SWAP2 POP POP JUMP JUMPDEST PUSH32 0x4E487B7100000000000000000000000000000000000000000000000000000000 PUSH1 0x0 MSTORE PUSH1 0x12 PUSH1 0x4 MSTORE PUSH1 0x24 PUSH1 0x0 REVERT JUMPDEST PUSH1 0x0 PUSH2 0x493 DUP3 PUSH2 0x2FC JUMP JUMPDEST SWAP2 POP PUSH2 0x49E DUP4 PUSH2 0x2FC JUMP JUMPDEST SWAP3 POP DUP3 PUSH2 0x4AE JUMPI PUSH2 0x4AD PUSH2 0x459 JUMP JUMPDEST JUMPDEST DUP3 DUP3 DIV SWAP1 POP SWAP3 SWAP2 POP POP JUMP JUMPDEST PUSH1 0x0 PUSH10 0xFFFFFFFFFFFFFFFFFFFF DUP3 AND SWAP1 POP SWAP2 SWAP1 POP JUMP JUMPDEST PUSH2 0x4D8 DUP2 PUSH2 0x4B9 JUMP JUMPDEST DUP2 EQ PUSH2 0x4E3 JUMPI PUSH1 0x0 DUP1 REVERT JUMPDEST POP JUMP JUMPDEST PUSH1 0x0 DUP2 MLOAD SWAP1 POP PUSH2 0x4F5 DUP2 PUSH2 0x4CF JUMP JUMPDEST SWAP3 SWAP2 POP POP JUMP JUMPDEST PUSH1 0x0 DUP2 SWAP1 POP SWAP2 SWAP1 POP JUMP JUMPDEST PUSH2 0x50E DUP2 PUSH2 0x4FB JUMP JUMPDEST DUP2 EQ PUSH2 0x519 JUMPI PUSH1 0x0 DUP1 REVERT JUMPDEST POP JUMP JUMPDEST PUSH1 0x0 DUP2 MLOAD SWAP1 POP PUSH2 0x52B DUP2 PUSH2 0x505 JUMP JUMPDEST SWAP3 SWAP2 POP POP JUMP JUMPDEST PUSH1 0x0 DUP1 PUSH1 0x0 DUP1 PUSH1 0x0 PUSH1 0xA0 DUP7 DUP9 SUB SLT ISZERO PUSH2 0x54D JUMPI PUSH2 0x54C PUSH2 0x330 JUMP JUMPDEST JUMPDEST PUSH1 0x0 PUSH2 0x55B DUP9 DUP3 DUP10 ADD PUSH2 0x4E6 JUMP JUMPDEST SWAP6 POP POP PUSH1 0x20 PUSH2 0x56C DUP9 DUP3 DUP10 ADD PUSH2 0x51C JUMP JUMPDEST SWAP5 POP POP PUSH1 0x40 PUSH2 0x57D DUP9 DUP3 DUP10 ADD PUSH2 0x38E JUMP JUMPDEST SWAP4 POP POP PUSH1 0x60 PUSH2 0x58E DUP9 DUP3 DUP10 ADD PUSH2 0x38E JUMP JUMPDEST SWAP3 POP POP PUSH1 0x80 PUSH2 0x59F DUP9 DUP3 DUP10 ADD PUSH2 0x4E6 JUMP JUMPDEST SWAP2 POP POP SWAP3 SWAP6 POP SWAP3 SWAP6 SWAP1 SWAP4 POP JUMP JUMPDEST PUSH1 0x0 PUSH2 0x5B7 DUP3 PUSH2 0x4FB JUMP JUMPDEST SWAP2 POP PUSH2 0x5C2 DUP4 PUSH2 0x4FB JUMP JUMPDEST SWAP3 POP DUP3 PUSH32 0x7FFFFFFFFFFFFFFFFFFFFFFFFFFFFFFFFFFFFFFFFFFFFFFFFFFFFFFFFFFFFFFF DIV DUP3 GT PUSH1 0x0 DUP5 SGT PUSH1 0x0 DUP5 SGT AND AND ISZERO PUSH2 0x601 JUMPI PUSH2 0x600 PUSH2 0x3D0 JUMP JUMPDEST JUMPDEST DUP2 PUSH32 0x8000000000000000000000000000000000000000000000000000000000000000 SDIV DUP4 SLT PUSH1 0x0 DUP5 SLT PUSH1 0x0 DUP5 SGT AND AND ISZERO PUSH2 0x63E JUMPI PUSH2 0x63D PUSH2 0x3D0 JUMP JUMPDEST JUMPDEST DUP3 PUSH32 0x8000000000000000000000000000000000000000000000000000000000000000 SDIV DUP3 SLT PUSH1 0x0 DUP5 SGT PUSH1 0x0 DUP5 SLT AND AND ISZERO PUSH2 0x67B JUMPI PUSH2 0x67A PUSH2 0x3D0 JUMP JUMPDEST JUMPDEST DUP3 PUSH32 0x7FFFFFFFFFFFFFFFFFFFFFFFFFFFFFFFFFFFFFFFFFFFFFFFFFFFFFFFFFFFFFFF SDIV DUP3 SLT PUSH1 0x0 DUP5 SLT PUSH1 0x0 DUP5 SLT AND AND ISZERO PUSH2 0x6B8 JUMPI PUSH2 0x6B7 PUSH2 0x3D0 JUMP JUMPDEST JUMPDEST DUP3 DUP3 MUL SWAP1 POP SWAP3 SWAP2 POP POP JUMP JUMPDEST PUSH1 0x0 DUP3 DUP3 MSTORE PUSH1 0x20 DUP3 ADD SWAP1 POP SWAP3 SWAP2 POP POP JUMP JUMPDEST PUSH32 0x4469646E27742073656E6420656E6F7567682065656565746800000000000000 PUSH1 0x0 DUP3 ADD MSTORE POP JUMP JUMPDEST PUSH1 0x0 PUSH2 0x70A PUSH1 0x19 DUP4 PUSH2 0x6C3 JUMP JUMPDEST SWAP2 POP PUSH2 0x715 DUP3 PUSH2 0x6D4 JUMP JUMPDEST PUSH1 0x20 DUP3 ADD SWAP1 POP SWAP2 SWAP1 POP JUMP JUMPDEST PUSH1 0x0 PUSH1 0x20 DUP3 ADD SWAP1 POP DUP2 DUP2 SUB PUSH1 0x0 DUP4 ADD MSTORE PUSH2 0x739 DUP2 PUSH2 0x6FD JUMP JUMPDEST SWAP1 POP SWAP2 SWAP1 POP JUMP INVALID LOG2 PUSH5 0x6970667358 0x22 SLT KECCAK256 DUP16 SMOD 0xE0 PUSH23 0x5A824339413D1474022906E296D39C0F8A7E30452E58CD PUSH11 0xD8153B6C64736F6C634300 ADDMOD ADDMOD STOP CALLER "
				},
				"gasEstimates": {
					"creation": {
						"codeDepositCost": "382000",
						"executionCost": "22524",
						"totalCost": "404524"
					},
					"external": {
						"fund()": "infinite",
						"getConversionRate(uint256)": "infinite",
						"getPrice()": "infinite",
						"getVersion()": "infinite",
						"minimumUSD()": "2429"
					}
				},
				"methodIdentifiers": {
					"fund()": "b60d4288",
					"getConversionRate(uint256)": "6e5b6b28",
					"getPrice()": "98d5fdca",
					"getVersion()": "0d8e6e2c",
					"minimumUSD()": "3430a88c"
				}
			},
			"storageLayout": {
				"storage": [
					{
						"astId": 53,
						"contract": "contracts/FundMe.sol:FundMe",
						"label": "minimumUSD",
						"offset": 0,
						"slot": "0",
						"type": "t_uint256"
					}
				],
				"types": {
					"t_uint256": {
						"encoding": "inplace",
						"label": "uint256",
						"numberOfBytes": "32"
					}
				}
			},
			"userdoc": {
				"kind": "user",
				"methods": {},
				"version": 1
			}
		}
	}
}